{
  "_format": "hh-sol-artifact-1",
  "contractName": "WarrantyNFT",
  "sourceName": "contracts/WarrantyNFT.sol",
  "abi": [
    {
      "inputs": [],
      "stateMutability": "nonpayable",
      "type": "constructor"
    },
    {
      "anonymous": false,
      "inputs": [
        {
          "indexed": true,
          "internalType": "address",
          "name": "owner",
          "type": "address"
        },
        {
          "indexed": true,
          "internalType": "address",
          "name": "approved",
          "type": "address"
        },
        {
          "indexed": true,
          "internalType": "uint256",
          "name": "tokenId",
          "type": "uint256"
        }
      ],
      "name": "Approval",
      "type": "event"
    },
    {
      "anonymous": false,
      "inputs": [
        {
          "indexed": true,
          "internalType": "address",
          "name": "owner",
          "type": "address"
        },
        {
          "indexed": true,
          "internalType": "address",
          "name": "operator",
          "type": "address"
        },
        {
          "indexed": false,
          "internalType": "bool",
          "name": "approved",
          "type": "bool"
        }
      ],
      "name": "ApprovalForAll",
      "type": "event"
    },
    {
      "anonymous": false,
      "inputs": [
        {
          "indexed": true,
          "internalType": "address",
          "name": "previousOwner",
          "type": "address"
        },
        {
          "indexed": true,
          "internalType": "address",
          "name": "newOwner",
          "type": "address"
        }
      ],
      "name": "OwnershipTransferred",
      "type": "event"
    },
    {
      "anonymous": false,
      "inputs": [
        {
          "indexed": true,
          "internalType": "uint256",
          "name": "tokenID",
          "type": "uint256"
        }
      ],
      "name": "Repair",
      "type": "event"
    },
    {
      "anonymous": false,
      "inputs": [
        {
          "indexed": true,
          "internalType": "uint256",
          "name": "tokenID",
          "type": "uint256"
        },
        {
          "indexed": true,
          "internalType": "uint256",
          "name": "newTokenID",
          "type": "uint256"
        }
      ],
      "name": "Replace",
      "type": "event"
    },
    {
      "anonymous": false,
      "inputs": [
        {
          "indexed": true,
          "internalType": "address",
          "name": "from",
          "type": "address"
        },
        {
          "indexed": true,
          "internalType": "address",
          "name": "to",
          "type": "address"
        },
        {
          "indexed": true,
          "internalType": "uint256",
          "name": "tokenId",
          "type": "uint256"
        }
      ],
      "name": "Transfer",
      "type": "event"
    },
    {
      "inputs": [
        {
          "internalType": "address",
          "name": "_admin",
          "type": "address"
        }
      ],
      "name": "addAdmin",
      "outputs": [],
      "stateMutability": "nonpayable",
      "type": "function"
    },
    {
      "inputs": [
        {
          "internalType": "uint256",
          "name": "productID",
          "type": "uint256"
        },
        {
          "internalType": "uint256",
          "name": "_warrantyPeriod",
          "type": "uint256"
        },
        {
          "internalType": "bool",
          "name": "_isSoulbound",
          "type": "bool"
        }
      ],
      "name": "addProduct",
      "outputs": [],
      "stateMutability": "nonpayable",
      "type": "function"
    },
    {
      "inputs": [
        {
          "internalType": "address",
          "name": "_seller",
          "type": "address"
        }
      ],
      "name": "addSeller",
      "outputs": [],
      "stateMutability": "nonpayable",
      "type": "function"
    },
    {
      "inputs": [
        {
          "internalType": "address",
          "name": "to",
          "type": "address"
        },
        {
          "internalType": "uint256",
          "name": "tokenId",
          "type": "uint256"
        }
      ],
      "name": "approve",
      "outputs": [],
      "stateMutability": "nonpayable",
      "type": "function"
    },
    {
      "inputs": [
        {
          "internalType": "address",
          "name": "owner",
          "type": "address"
        }
      ],
      "name": "balanceOf",
      "outputs": [
        {
          "internalType": "uint256",
          "name": "",
          "type": "uint256"
        }
      ],
      "stateMutability": "view",
      "type": "function"
    },
    {
      "inputs": [
        {
          "internalType": "uint256",
          "name": "tokenId",
          "type": "uint256"
        }
      ],
      "name": "burn",
      "outputs": [],
      "stateMutability": "nonpayable",
      "type": "function"
    },
    {
      "inputs": [
        {
          "internalType": "uint256",
          "name": "tokenId",
          "type": "uint256"
        }
      ],
      "name": "getApproved",
      "outputs": [
        {
          "internalType": "address",
          "name": "",
          "type": "address"
        }
      ],
      "stateMutability": "view",
      "type": "function"
    },
    {
      "inputs": [
        {
          "internalType": "address",
          "name": "",
          "type": "address"
        }
      ],
      "name": "isAdmin",
      "outputs": [
        {
          "internalType": "bool",
          "name": "",
          "type": "bool"
        }
      ],
      "stateMutability": "view",
      "type": "function"
    },
    {
      "inputs": [
        {
          "internalType": "address",
          "name": "owner",
          "type": "address"
        },
        {
          "internalType": "address",
          "name": "operator",
          "type": "address"
        }
      ],
      "name": "isApprovedForAll",
      "outputs": [
        {
          "internalType": "bool",
          "name": "",
          "type": "bool"
        }
      ],
      "stateMutability": "view",
      "type": "function"
    },
    {
      "inputs": [
        {
          "internalType": "uint256",
          "name": "tokenID",
          "type": "uint256"
        }
      ],
      "name": "isOwner",
      "outputs": [
        {
          "internalType": "bool",
          "name": "",
          "type": "bool"
        }
      ],
      "stateMutability": "view",
      "type": "function"
    },
    {
      "inputs": [
        {
          "internalType": "address",
          "name": "",
          "type": "address"
        }
      ],
      "name": "isSeller",
      "outputs": [
        {
          "internalType": "bool",
          "name": "",
          "type": "bool"
        }
      ],
      "stateMutability": "view",
      "type": "function"
    },
    {
      "inputs": [
        {
          "internalType": "uint256",
          "name": "",
          "type": "uint256"
        }
      ],
      "name": "issueTime",
      "outputs": [
        {
          "internalType": "uint256",
          "name": "",
          "type": "uint256"
        }
      ],
      "stateMutability": "view",
      "type": "function"
    },
    {
      "inputs": [
        {
          "internalType": "address",
          "name": "buyer",
          "type": "address"
        },
        {
          "internalType": "uint256",
          "name": "productID",
          "type": "uint256"
        },
        {
          "internalType": "uint256",
          "name": "tokenID",
          "type": "uint256"
        }
      ],
      "name": "mintWarrantyNFT",
      "outputs": [],
      "stateMutability": "nonpayable",
      "type": "function"
    },
    {
      "inputs": [],
      "name": "name",
      "outputs": [
        {
          "internalType": "string",
          "name": "",
          "type": "string"
        }
      ],
      "stateMutability": "view",
      "type": "function"
    },
    {
      "inputs": [],
      "name": "owner",
      "outputs": [
        {
          "internalType": "address",
          "name": "",
          "type": "address"
        }
      ],
      "stateMutability": "view",
      "type": "function"
    },
    {
      "inputs": [
        {
          "internalType": "uint256",
          "name": "tokenId",
          "type": "uint256"
        }
      ],
      "name": "ownerOf",
      "outputs": [
        {
          "internalType": "address",
          "name": "",
          "type": "address"
        }
      ],
      "stateMutability": "view",
      "type": "function"
    },
    {
      "inputs": [
        {
          "internalType": "uint256",
          "name": "",
          "type": "uint256"
        }
      ],
      "name": "productTransferable",
      "outputs": [
        {
          "internalType": "bool",
          "name": "",
          "type": "bool"
        }
      ],
      "stateMutability": "view",
      "type": "function"
    },
    {
      "inputs": [
        {
          "internalType": "uint256",
          "name": "",
          "type": "uint256"
        }
      ],
      "name": "productWarrantyPeriod",
      "outputs": [
        {
          "internalType": "uint256",
          "name": "",
          "type": "uint256"
        }
      ],
      "stateMutability": "view",
      "type": "function"
    },
    {
      "inputs": [
        {
          "internalType": "address",
          "name": "_admin",
          "type": "address"
        }
      ],
      "name": "removeAdmin",
      "outputs": [],
      "stateMutability": "nonpayable",
      "type": "function"
    },
    {
      "inputs": [
        {
          "internalType": "address",
          "name": "_seller",
          "type": "address"
        }
      ],
      "name": "removeSeller",
      "outputs": [],
      "stateMutability": "nonpayable",
      "type": "function"
    },
    {
      "inputs": [],
      "name": "renounceOwnership",
      "outputs": [],
      "stateMutability": "nonpayable",
      "type": "function"
    },
    {
      "inputs": [
        {
          "internalType": "uint256",
          "name": "tokenID",
          "type": "uint256"
        }
      ],
      "name": "repairProduct",
      "outputs": [],
      "stateMutability": "nonpayable",
      "type": "function"
    },
    {
      "inputs": [
        {
          "internalType": "uint256",
          "name": "tokenID",
          "type": "uint256"
        },
        {
          "internalType": "uint256",
          "name": "newTokenID",
          "type": "uint256"
        }
      ],
      "name": "replaceProduct",
      "outputs": [],
      "stateMutability": "nonpayable",
      "type": "function"
    },
    {
      "inputs": [
        {
          "internalType": "address",
          "name": "from",
          "type": "address"
        },
        {
          "internalType": "address",
          "name": "to",
          "type": "address"
        },
        {
          "internalType": "uint256",
          "name": "tokenId",
          "type": "uint256"
        }
      ],
      "name": "safeTransferFrom",
      "outputs": [],
      "stateMutability": "nonpayable",
      "type": "function"
    },
    {
      "inputs": [
        {
          "internalType": "address",
          "name": "from",
          "type": "address"
        },
        {
          "internalType": "address",
          "name": "to",
          "type": "address"
        },
        {
          "internalType": "uint256",
          "name": "tokenId",
          "type": "uint256"
        },
        {
          "internalType": "bytes",
          "name": "data",
          "type": "bytes"
        }
      ],
      "name": "safeTransferFrom",
      "outputs": [],
      "stateMutability": "nonpayable",
      "type": "function"
    },
    {
      "inputs": [
        {
          "internalType": "uint256",
          "name": "",
          "type": "uint256"
        }
      ],
      "name": "sellerOf",
      "outputs": [
        {
          "internalType": "address",
          "name": "",
          "type": "address"
        }
      ],
      "stateMutability": "view",
      "type": "function"
    },
    {
      "inputs": [
        {
          "internalType": "address",
          "name": "operator",
          "type": "address"
        },
        {
          "internalType": "bool",
          "name": "approved",
          "type": "bool"
        }
      ],
      "name": "setApprovalForAll",
      "outputs": [],
      "stateMutability": "nonpayable",
      "type": "function"
    },
    {
      "inputs": [
        {
          "internalType": "bytes4",
          "name": "interfaceId",
          "type": "bytes4"
        }
      ],
      "name": "supportsInterface",
      "outputs": [
        {
          "internalType": "bool",
          "name": "",
          "type": "bool"
        }
      ],
      "stateMutability": "view",
      "type": "function"
    },
    {
      "inputs": [],
      "name": "symbol",
      "outputs": [
        {
          "internalType": "string",
          "name": "",
          "type": "string"
        }
      ],
      "stateMutability": "view",
      "type": "function"
    },
    {
      "inputs": [
        {
          "internalType": "uint256",
          "name": "tokenId",
          "type": "uint256"
        }
      ],
      "name": "tokenURI",
      "outputs": [
        {
          "internalType": "string",
          "name": "",
          "type": "string"
        }
      ],
      "stateMutability": "view",
      "type": "function"
    },
    {
      "inputs": [
        {
          "internalType": "address",
          "name": "from",
          "type": "address"
        },
        {
          "internalType": "address",
          "name": "to",
          "type": "address"
        },
        {
          "internalType": "uint256",
          "name": "tokenId",
          "type": "uint256"
        }
      ],
      "name": "transferFrom",
      "outputs": [],
      "stateMutability": "nonpayable",
      "type": "function"
    },
    {
      "inputs": [
        {
          "internalType": "address",
          "name": "newOwner",
          "type": "address"
        }
      ],
      "name": "transferOwnership",
      "outputs": [],
      "stateMutability": "nonpayable",
      "type": "function"
    },
    {
      "inputs": [
        {
          "internalType": "uint256",
          "name": "",
          "type": "uint256"
        }
      ],
      "name": "transferable",
      "outputs": [
        {
          "internalType": "bool",
          "name": "",
          "type": "bool"
        }
      ],
      "stateMutability": "view",
      "type": "function"
    },
    {
      "inputs": [
        {
          "internalType": "uint256",
          "name": "",
          "type": "uint256"
        }
      ],
      "name": "warrantyPeriod",
      "outputs": [
        {
          "internalType": "uint256",
          "name": "",
          "type": "uint256"
        }
      ],
      "stateMutability": "view",
      "type": "function"
    }
  ],
  "bytecode": "0x60806040523480156200001157600080fd5b506040518060400160405280600881526020017f57617272616e74790000000000000000000000000000000000000000000000008152506040518060400160405280600181526020017f570000000000000000000000000000000000000000000000000000000000000081525081600090805190602001906200009692919062000275565b508060019080519060200190620000af92919062000275565b505050620000d2620000c6620001a760201b60201c565b620001af60201b60201c565b73f39fd6e51aad88f6f4ce6ab8827279cfffb92266600860006101000a81548173ffffffffffffffffffffffffffffffffffffffff021916908373ffffffffffffffffffffffffffffffffffffffff160217905550600160096000600860009054906101000a900473ffffffffffffffffffffffffffffffffffffffff1673ffffffffffffffffffffffffffffffffffffffff1673ffffffffffffffffffffffffffffffffffffffff16815260200190815260200160002060006101000a81548160ff0219169083151502179055506200038a565b600033905090565b6000600760009054906101000a900473ffffffffffffffffffffffffffffffffffffffff16905081600760006101000a81548173ffffffffffffffffffffffffffffffffffffffff021916908373ffffffffffffffffffffffffffffffffffffffff1602179055508173ffffffffffffffffffffffffffffffffffffffff168173ffffffffffffffffffffffffffffffffffffffff167f8be0079c531659141344cd1fd0a4f28419497f9722a3daafe3b4186f6b6457e060405160405180910390a35050565b828054620002839062000354565b90600052602060002090601f016020900481019282620002a75760008555620002f3565b82601f10620002c257805160ff1916838001178555620002f3565b82800160010185558215620002f3579182015b82811115620002f2578251825591602001919060010190620002d5565b5b50905062000302919062000306565b5090565b5b808211156200032157600081600090555060010162000307565b5090565b7f4e487b7100000000000000000000000000000000000000000000000000000000600052602260045260246000fd5b600060028204905060018216806200036d57607f821691505b6020821081141562000384576200038362000325565b5b50919050565b6140bb806200039a6000396000f3fe608060405234801561001057600080fd5b50600436106102065760003560e01c80637cb9cf541161011a578063d93fabfa116100ad578063ee95feaf1161007c578063ee95feaf1461062f578063f2fde38b1461065f578063f4c3b4d71461067b578063fa173670146106ab578063fc45e66c146106c757610206565b8063d93fabfa14610597578063ddad4fbc146105b3578063e05c5a83146105cf578063e985e9c5146105ff57610206565b8063a22cb465116100e9578063a22cb465146104ff578063b88d4fde1461051b578063c87b56dd14610537578063cec706e41461056757610206565b80637cb9cf54146104775780638c00cc96146104935780638da5cb5b146104c357806395d89b41146104e157610206565b806339c7639c1161019d57806367a13cc81161016c57806367a13cc8146103c157806370480275146103f157806370a082311461040d578063715018a61461043d5780637997df6f1461044757610206565b806339c7639c1461032957806342842e0e1461035957806342966c68146103755780636352211e1461039157610206565b8063109b3d1f116101d9578063109b3d1f146102a55780631785f53c146102c157806323b872dd146102dd57806324d7806c146102f957610206565b806301ffc9a71461020b57806306fdde031461023b578063081812fc14610259578063095ea7b314610289575b600080fd5b61022560048036038101906102209190612e4a565b6106e3565b6040516102329190612e92565b60405180910390f35b6102436107c5565b6040516102509190612f46565b60405180910390f35b610273600480360381019061026e9190612f9e565b610857565b604051610280919061300c565b60405180910390f35b6102a3600480360381019061029e9190613053565b61089d565b005b6102bf60048036038101906102ba9190612f9e565b6109b5565b005b6102db60048036038101906102d69190613093565b610c03565b005b6102f760048036038101906102f291906130c0565b610cea565b005b610313600480360381019061030e9190613093565b610d4a565b6040516103209190612e92565b60405180910390f35b610343600480360381019061033e9190612f9e565b610d6a565b6040516103509190612e92565b60405180910390f35b610373600480360381019061036e91906130c0565b610dbb565b005b61038f600480360381019061038a9190612f9e565b610ddb565b005b6103ab60048036038101906103a69190612f9e565b610e37565b6040516103b8919061300c565b60405180910390f35b6103db60048036038101906103d69190612f9e565b610ebe565b6040516103e89190613122565b60405180910390f35b61040b60048036038101906104069190613093565b610ed6565b005b61042760048036038101906104229190613093565b610fbd565b6040516104349190613122565b60405180910390f35b610445611075565b005b610461600480360381019061045c9190612f9e565b611089565b60405161046e9190612e92565b60405180910390f35b610491600480360381019061048c9190613093565b6110a9565b005b6104ad60048036038101906104a89190612f9e565b611190565b6040516104ba9190613122565b60405180910390f35b6104cb6111a8565b6040516104d8919061300c565b60405180910390f35b6104e96111d2565b6040516104f69190612f46565b60405180910390f35b61051960048036038101906105149190613169565b611264565b005b610535600480360381019061053091906132de565b61127a565b005b610551600480360381019061054c9190612f9e565b6112dc565b60405161055e9190612f46565b60405180910390f35b610581600480360381019061057c9190612f9e565b6112ee565b60405161058e9190613122565b60405180910390f35b6105b160048036038101906105ac9190613093565b611306565b005b6105cd60048036038101906105c89190613361565b6113ed565b005b6105e960048036038101906105e49190612f9e565b61152f565b6040516105f6919061300c565b60405180910390f35b610619600480360381019061061491906133b4565b611562565b6040516106269190612e92565b60405180910390f35b61064960048036038101906106449190613093565b6115f6565b6040516106569190612e92565b60405180910390f35b61067960048036038101906106749190613093565b611616565b005b61069560048036038101906106909190612f9e565b61169a565b6040516106a29190612e92565b60405180910390f35b6106c560048036038101906106c091906133f4565b6116ba565b005b6106e160048036038101906106dc9190613434565b611935565b005b60007f80ac58cd000000000000000000000000000000000000000000000000000000007bffffffffffffffffffffffffffffffffffffffffffffffffffffffff1916827bffffffffffffffffffffffffffffffffffffffffffffffffffffffff191614806107ae57507f5b5e139f000000000000000000000000000000000000000000000000000000007bffffffffffffffffffffffffffffffffffffffffffffffffffffffff1916827bffffffffffffffffffffffffffffffffffffffffffffffffffffffff1916145b806107be57506107bd82611a0a565b5b9050919050565b6060600080546107d4906134b6565b80601f0160208091040260200160405190810160405280929190818152602001828054610800906134b6565b801561084d5780601f106108225761010080835404028352916020019161084d565b820191906000526020600020905b81548152906001019060200180831161083057829003601f168201915b5050505050905090565b600061086282611a74565b6004600083815260200190815260200160002060009054906101000a900473ffffffffffffffffffffffffffffffffffffffff169050919050565b60006108a882610e37565b90508073ffffffffffffffffffffffffffffffffffffffff168373ffffffffffffffffffffffffffffffffffffffff161415610919576040517f08c379a00000000000000000000000000000000000000000000000000000000081526004016109109061355a565b60405180910390fd5b8073ffffffffffffffffffffffffffffffffffffffff16610938611abf565b73ffffffffffffffffffffffffffffffffffffffff161480610967575061096681610961611abf565b611562565b5b6109a6576040517f08c379a000000000000000000000000000000000000000000000000000000000815260040161099d906135ec565b60405180910390fd5b6109b08383611ac7565b505050565b600a60003373ffffffffffffffffffffffffffffffffffffffff1673ffffffffffffffffffffffffffffffffffffffff16815260200190815260200160002060009054906101000a900460ff16610a41576040517f08c379a0000000000000000000000000000000000000000000000000000000008152600401610a3890613658565b60405180910390fd5b80600073ffffffffffffffffffffffffffffffffffffffff16610a6382610e37565b73ffffffffffffffffffffffffffffffffffffffff161415610aba576040517f08c379a0000000000000000000000000000000000000000000000000000000008152600401610ab1906136ea565b60405180910390fd5b81426010600083815260200190815260200160002054600e600084815260200190815260200160002054610aee9190613739565b11610b2e576040517f08c379a0000000000000000000000000000000000000000000000000000000008152600401610b2590613801565b60405180910390fd5b823373ffffffffffffffffffffffffffffffffffffffff16600d600083815260200190815260200160002060009054906101000a900473ffffffffffffffffffffffffffffffffffffffff1673ffffffffffffffffffffffffffffffffffffffff1614610bd0576040517f08c379a0000000000000000000000000000000000000000000000000000000008152600401610bc79061386d565b60405180910390fd5b837f10ec01e7da8806f72699d63daf6c544662592f529db723a941af7aba0d2c3a2a60405160405180910390a250505050565b600960003373ffffffffffffffffffffffffffffffffffffffff1673ffffffffffffffffffffffffffffffffffffffff16815260200190815260200160002060009054906101000a900460ff16610c8f576040517f08c379a0000000000000000000000000000000000000000000000000000000008152600401610c86906138d9565b60405180910390fd5b6000600960008373ffffffffffffffffffffffffffffffffffffffff1673ffffffffffffffffffffffffffffffffffffffff16815260200190815260200160002060006101000a81548160ff02191690831515021790555050565b610cfb610cf5611abf565b82611b80565b610d3a576040517f08c379a0000000000000000000000000000000000000000000000000000000008152600401610d319061396b565b60405180910390fd5b610d45838383611c15565b505050565b60096020528060005260406000206000915054906101000a900460ff1681565b60003373ffffffffffffffffffffffffffffffffffffffff16610d8c83610e37565b73ffffffffffffffffffffffffffffffffffffffff161415610db15760019050610db6565b600090505b919050565b610dd68383836040518060200160405280600081525061127a565b505050565b610dec610de6611abf565b82611b80565b610e2b576040517f08c379a0000000000000000000000000000000000000000000000000000000008152600401610e229061396b565b60405180910390fd5b610e3481611f0f565b50565b600080610e4383611f1b565b9050600073ffffffffffffffffffffffffffffffffffffffff168173ffffffffffffffffffffffffffffffffffffffff161415610eb5576040517f08c379a0000000000000000000000000000000000000000000000000000000008152600401610eac906139d7565b60405180910390fd5b80915050919050565b600c6020528060005260406000206000915090505481565b600960003373ffffffffffffffffffffffffffffffffffffffff1673ffffffffffffffffffffffffffffffffffffffff16815260200190815260200160002060009054906101000a900460ff16610f62576040517f08c379a0000000000000000000000000000000000000000000000000000000008152600401610f59906138d9565b60405180910390fd5b6001600960008373ffffffffffffffffffffffffffffffffffffffff1673ffffffffffffffffffffffffffffffffffffffff16815260200190815260200160002060006101000a81548160ff02191690831515021790555050565b60008073ffffffffffffffffffffffffffffffffffffffff168273ffffffffffffffffffffffffffffffffffffffff16141561102e576040517f08c379a000000000000000000000000000000000000000000000000000000000815260040161102590613a69565b60405180910390fd5b600360008373ffffffffffffffffffffffffffffffffffffffff1673ffffffffffffffffffffffffffffffffffffffff168152602001908152602001600020549050919050565b61107d611f58565b6110876000611fd6565b565b600b6020528060005260406000206000915054906101000a900460ff1681565b600960003373ffffffffffffffffffffffffffffffffffffffff1673ffffffffffffffffffffffffffffffffffffffff16815260200190815260200160002060009054906101000a900460ff16611135576040517f08c379a000000000000000000000000000000000000000000000000000000000815260040161112c906138d9565b60405180910390fd5b6000600a60008373ffffffffffffffffffffffffffffffffffffffff1673ffffffffffffffffffffffffffffffffffffffff16815260200190815260200160002060006101000a81548160ff02191690831515021790555050565b600e6020528060005260406000206000915090505481565b6000600760009054906101000a900473ffffffffffffffffffffffffffffffffffffffff16905090565b6060600180546111e1906134b6565b80601f016020809104026020016040519081016040528092919081815260200182805461120d906134b6565b801561125a5780601f1061122f5761010080835404028352916020019161125a565b820191906000526020600020905b81548152906001019060200180831161123d57829003601f168201915b5050505050905090565b61127661126f611abf565b838361209c565b5050565b61128b611285611abf565b83611b80565b6112ca576040517f08c379a00000000000000000000000000000000000000000000000000000000081526004016112c19061396b565b60405180910390fd5b6112d684848484612209565b50505050565b60606112e782612265565b9050919050565b60106020528060005260406000206000915090505481565b600960003373ffffffffffffffffffffffffffffffffffffffff1673ffffffffffffffffffffffffffffffffffffffff16815260200190815260200160002060009054906101000a900460ff16611392576040517f08c379a0000000000000000000000000000000000000000000000000000000008152600401611389906138d9565b60405180910390fd5b6001600a60008373ffffffffffffffffffffffffffffffffffffffff1673ffffffffffffffffffffffffffffffffffffffff16815260200190815260200160002060006101000a81548160ff02191690831515021790555050565b600a60003373ffffffffffffffffffffffffffffffffffffffff1673ffffffffffffffffffffffffffffffffffffffff16815260200190815260200160002060009054906101000a900460ff16611479576040517f08c379a000000000000000000000000000000000000000000000000000000000815260040161147090613658565b60405180910390fd5b33600d600083815260200190815260200160002060006101000a81548173ffffffffffffffffffffffffffffffffffffffff021916908373ffffffffffffffffffffffffffffffffffffffff16021790555042600e600083815260200190815260200160002081905550600c60008381526020019081526020016000205460106000838152602001908152602001600020819055506115188382612378565b61152a8161152584612396565b61246e565b505050565b600d6020528060005260406000206000915054906101000a900473ffffffffffffffffffffffffffffffffffffffff1681565b6000600560008473ffffffffffffffffffffffffffffffffffffffff1673ffffffffffffffffffffffffffffffffffffffff16815260200190815260200160002060008373ffffffffffffffffffffffffffffffffffffffff1673ffffffffffffffffffffffffffffffffffffffff16815260200190815260200160002060009054906101000a900460ff16905092915050565b600a6020528060005260406000206000915054906101000a900460ff1681565b61161e611f58565b600073ffffffffffffffffffffffffffffffffffffffff168173ffffffffffffffffffffffffffffffffffffffff16141561168e576040517f08c379a000000000000000000000000000000000000000000000000000000000815260040161168590613afb565b60405180910390fd5b61169781611fd6565b50565b600f6020528060005260406000206000915054906101000a900460ff1681565b600a60003373ffffffffffffffffffffffffffffffffffffffff1673ffffffffffffffffffffffffffffffffffffffff16815260200190815260200160002060009054906101000a900460ff16611746576040517f08c379a000000000000000000000000000000000000000000000000000000000815260040161173d90613658565b60405180910390fd5b81600073ffffffffffffffffffffffffffffffffffffffff1661176882610e37565b73ffffffffffffffffffffffffffffffffffffffff1614156117bf576040517f08c379a00000000000000000000000000000000000000000000000000000000081526004016117b6906136ea565b60405180910390fd5b82426010600083815260200190815260200160002054600e6000848152602001908152602001600020546117f39190613739565b11611833576040517f08c379a000000000000000000000000000000000000000000000000000000000815260040161182a90613801565b60405180910390fd5b833373ffffffffffffffffffffffffffffffffffffffff16600d600083815260200190815260200160002060009054906101000a900473ffffffffffffffffffffffffffffffffffffffff1673ffffffffffffffffffffffffffffffffffffffff16146118d5576040517f08c379a00000000000000000000000000000000000000000000000000000000081526004016118cc9061386d565b60405180910390fd5b600e600086815260200190815260200160002054600e60008681526020019081526020016000208190555083857f834caf0d657e1c8ce84ea94dbc4257c78fb77ad2bcd43a096c37bb539928454260405160405180910390a35050505050565b600a60003373ffffffffffffffffffffffffffffffffffffffff1673ffffffffffffffffffffffffffffffffffffffff16815260200190815260200160002060009054906101000a900460ff166119c1576040517f08c379a00000000000000000000000000000000000000000000000000000000081526004016119b890613658565b60405180910390fd5b81600c6000858152602001908152602001600020819055508015600b600085815260200190815260200160002060006101000a81548160ff021916908315150217905550505050565b60007f01ffc9a7000000000000000000000000000000000000000000000000000000007bffffffffffffffffffffffffffffffffffffffffffffffffffffffff1916827bffffffffffffffffffffffffffffffffffffffffffffffffffffffff1916149050919050565b611a7d816124e2565b611abc576040517f08c379a0000000000000000000000000000000000000000000000000000000008152600401611ab3906139d7565b60405180910390fd5b50565b600033905090565b816004600083815260200190815260200160002060006101000a81548173ffffffffffffffffffffffffffffffffffffffff021916908373ffffffffffffffffffffffffffffffffffffffff160217905550808273ffffffffffffffffffffffffffffffffffffffff16611b3a83610e37565b73ffffffffffffffffffffffffffffffffffffffff167f8c5be1e5ebec7d5bd14f71427d1e84f3dd0314c0f7b2291e5b200ac8c7c3b92560405160405180910390a45050565b600080611b8c83610e37565b90508073ffffffffffffffffffffffffffffffffffffffff168473ffffffffffffffffffffffffffffffffffffffff161480611bce5750611bcd8185611562565b5b80611c0c57508373ffffffffffffffffffffffffffffffffffffffff16611bf484610857565b73ffffffffffffffffffffffffffffffffffffffff16145b91505092915050565b8273ffffffffffffffffffffffffffffffffffffffff16611c3582610e37565b73ffffffffffffffffffffffffffffffffffffffff1614611c8b576040517f08c379a0000000000000000000000000000000000000000000000000000000008152600401611c8290613b8d565b60405180910390fd5b600073ffffffffffffffffffffffffffffffffffffffff168273ffffffffffffffffffffffffffffffffffffffff161415611cfb576040517f08c379a0000000000000000000000000000000000000000000000000000000008152600401611cf290613c1f565b60405180910390fd5b611d088383836001612523565b8273ffffffffffffffffffffffffffffffffffffffff16611d2882610e37565b73ffffffffffffffffffffffffffffffffffffffff1614611d7e576040517f08c379a0000000000000000000000000000000000000000000000000000000008152600401611d7590613b8d565b60405180910390fd5b6004600082815260200190815260200160002060006101000a81549073ffffffffffffffffffffffffffffffffffffffff02191690556001600360008573ffffffffffffffffffffffffffffffffffffffff1673ffffffffffffffffffffffffffffffffffffffff168152602001908152602001600020600082825403925050819055506001600360008473ffffffffffffffffffffffffffffffffffffffff1673ffffffffffffffffffffffffffffffffffffffff16815260200190815260200160002060008282540192505081905550816002600083815260200190815260200160002060006101000a81548173ffffffffffffffffffffffffffffffffffffffff021916908373ffffffffffffffffffffffffffffffffffffffff160217905550808273ffffffffffffffffffffffffffffffffffffffff168473ffffffffffffffffffffffffffffffffffffffff167fddf252ad1be2c89b69c2b068fc378daa952ba7f163c4a11628f55a4df523b3ef60405160405180910390a4611f0a8383836001612529565b505050565b611f188161252f565b50565b60006002600083815260200190815260200160002060009054906101000a900473ffffffffffffffffffffffffffffffffffffffff169050919050565b611f60611abf565b73ffffffffffffffffffffffffffffffffffffffff16611f7e6111a8565b73ffffffffffffffffffffffffffffffffffffffff1614611fd4576040517f08c379a0000000000000000000000000000000000000000000000000000000008152600401611fcb90613c8b565b60405180910390fd5b565b6000600760009054906101000a900473ffffffffffffffffffffffffffffffffffffffff16905081600760006101000a81548173ffffffffffffffffffffffffffffffffffffffff021916908373ffffffffffffffffffffffffffffffffffffffff1602179055508173ffffffffffffffffffffffffffffffffffffffff168173ffffffffffffffffffffffffffffffffffffffff167f8be0079c531659141344cd1fd0a4f28419497f9722a3daafe3b4186f6b6457e060405160405180910390a35050565b8173ffffffffffffffffffffffffffffffffffffffff168373ffffffffffffffffffffffffffffffffffffffff16141561210b576040517f08c379a000000000000000000000000000000000000000000000000000000000815260040161210290613cf7565b60405180910390fd5b80600560008573ffffffffffffffffffffffffffffffffffffffff1673ffffffffffffffffffffffffffffffffffffffff16815260200190815260200160002060008473ffffffffffffffffffffffffffffffffffffffff1673ffffffffffffffffffffffffffffffffffffffff16815260200190815260200160002060006101000a81548160ff0219169083151502179055508173ffffffffffffffffffffffffffffffffffffffff168373ffffffffffffffffffffffffffffffffffffffff167f17307eab39ab6107e8899845ad3d59bd9653f200f220920489ca2b5937696c31836040516121fc9190612e92565b60405180910390a3505050565b612214848484611c15565b61222084848484612582565b61225f576040517f08c379a000000000000000000000000000000000000000000000000000000000815260040161225690613d89565b60405180910390fd5b50505050565b606061227082611a74565b6000600660008481526020019081526020016000208054612290906134b6565b80601f01602080910402602001604051908101604052809291908181526020018280546122bc906134b6565b80156123095780601f106122de57610100808354040283529160200191612309565b820191906000526020600020905b8154815290600101906020018083116122ec57829003601f168201915b50505050509050600061231a612719565b9050600081511415612330578192505050612373565b60008251111561236557808260405160200161234d929190613de5565b60405160208183030381529060405292505050612373565b61236e84612756565b925050505b919050565b6123928282604051806020016040528060008152506127be565b5050565b6060600060016123a584612819565b01905060008167ffffffffffffffff8111156123c4576123c36131b3565b5b6040519080825280601f01601f1916602001820160405280156123f65781602001600182028036833780820191505090505b509050600082602001820190505b600115612463578080600190039150507f3031323334353637383961626364656600000000000000000000000000000000600a86061a8153600a858161244d5761244c613e09565b5b049450600085141561245e57612463565b612404565b819350505050919050565b612477826124e2565b6124b6576040517f08c379a00000000000000000000000000000000000000000000000000000000081526004016124ad90613eaa565b60405180910390fd5b806006600084815260200190815260200160002090805190602001906124dd929190612cfb565b505050565b60008073ffffffffffffffffffffffffffffffffffffffff1661250483611f1b565b73ffffffffffffffffffffffffffffffffffffffff1614159050919050565b50505050565b50505050565b6125388161296c565b6000600660008381526020019081526020016000208054612558906134b6565b90501461257f5760066000828152602001908152602001600020600061257e9190612d81565b5b50565b60006125a38473ffffffffffffffffffffffffffffffffffffffff16612aba565b1561270c578373ffffffffffffffffffffffffffffffffffffffff1663150b7a026125cc611abf565b8786866040518563ffffffff1660e01b81526004016125ee9493929190613f1f565b602060405180830381600087803b15801561260857600080fd5b505af192505050801561263957506040513d601f19601f820116820180604052508101906126369190613f80565b60015b6126bc573d8060008114612669576040519150601f19603f3d011682016040523d82523d6000602084013e61266e565b606091505b506000815114156126b4576040517f08c379a00000000000000000000000000000000000000000000000000000000081526004016126ab90613d89565b60405180910390fd5b805181602001fd5b63150b7a0260e01b7bffffffffffffffffffffffffffffffffffffffffffffffffffffffff1916817bffffffffffffffffffffffffffffffffffffffffffffffffffffffff191614915050612711565b600190505b949350505050565b60606040518060400160405280600881526020017f68747470733a2f2f000000000000000000000000000000000000000000000000815250905090565b606061276182611a74565b600061276b612719565b9050600081511161278b57604051806020016040528060008152506127b6565b8061279584612396565b6040516020016127a6929190613de5565b6040516020818303038152906040525b915050919050565b6127c88383612add565b6127d56000848484612582565b612814576040517f08c379a000000000000000000000000000000000000000000000000000000000815260040161280b90613d89565b60405180910390fd5b505050565b600080600090507a184f03e93ff9f4daa797ed6e38ed64bf6a1f0100000000000000008310612877577a184f03e93ff9f4daa797ed6e38ed64bf6a1f010000000000000000838161286d5761286c613e09565b5b0492506040810190505b6d04ee2d6d415b85acef810000000083106128b4576d04ee2d6d415b85acef810000000083816128aa576128a9613e09565b5b0492506020810190505b662386f26fc1000083106128e357662386f26fc1000083816128d9576128d8613e09565b5b0492506010810190505b6305f5e100831061290c576305f5e100838161290257612901613e09565b5b0492506008810190505b612710831061293157612710838161292757612926613e09565b5b0492506004810190505b60648310612954576064838161294a57612949613e09565b5b0492506002810190505b600a8310612963576001810190505b80915050919050565b600061297782610e37565b9050612987816000846001612523565b61299082610e37565b90506004600083815260200190815260200160002060006101000a81549073ffffffffffffffffffffffffffffffffffffffff02191690556001600360008373ffffffffffffffffffffffffffffffffffffffff1673ffffffffffffffffffffffffffffffffffffffff168152602001908152602001600020600082825403925050819055506002600083815260200190815260200160002060006101000a81549073ffffffffffffffffffffffffffffffffffffffff021916905581600073ffffffffffffffffffffffffffffffffffffffff168273ffffffffffffffffffffffffffffffffffffffff167fddf252ad1be2c89b69c2b068fc378daa952ba7f163c4a11628f55a4df523b3ef60405160405180910390a4612ab6816000846001612529565b5050565b6000808273ffffffffffffffffffffffffffffffffffffffff163b119050919050565b600073ffffffffffffffffffffffffffffffffffffffff168273ffffffffffffffffffffffffffffffffffffffff161415612b4d576040517f08c379a0000000000000000000000000000000000000000000000000000000008152600401612b4490613ff9565b60405180910390fd5b612b56816124e2565b15612b96576040517f08c379a0000000000000000000000000000000000000000000000000000000008152600401612b8d90614065565b60405180910390fd5b612ba4600083836001612523565b612bad816124e2565b15612bed576040517f08c379a0000000000000000000000000000000000000000000000000000000008152600401612be490614065565b60405180910390fd5b6001600360008473ffffffffffffffffffffffffffffffffffffffff1673ffffffffffffffffffffffffffffffffffffffff16815260200190815260200160002060008282540192505081905550816002600083815260200190815260200160002060006101000a81548173ffffffffffffffffffffffffffffffffffffffff021916908373ffffffffffffffffffffffffffffffffffffffff160217905550808273ffffffffffffffffffffffffffffffffffffffff16600073ffffffffffffffffffffffffffffffffffffffff167fddf252ad1be2c89b69c2b068fc378daa952ba7f163c4a11628f55a4df523b3ef60405160405180910390a4612cf7600083836001612529565b5050565b828054612d07906134b6565b90600052602060002090601f016020900481019282612d295760008555612d70565b82601f10612d4257805160ff1916838001178555612d70565b82800160010185558215612d70579182015b82811115612d6f578251825591602001919060010190612d54565b5b509050612d7d9190612dc1565b5090565b508054612d8d906134b6565b6000825580601f10612d9f5750612dbe565b601f016020900490600052602060002090810190612dbd9190612dc1565b5b50565b5b80821115612dda576000816000905550600101612dc2565b5090565b6000604051905090565b600080fd5b600080fd5b60007fffffffff0000000000000000000000000000000000000000000000000000000082169050919050565b612e2781612df2565b8114612e3257600080fd5b50565b600081359050612e4481612e1e565b92915050565b600060208284031215612e6057612e5f612de8565b5b6000612e6e84828501612e35565b91505092915050565b60008115159050919050565b612e8c81612e77565b82525050565b6000602082019050612ea76000830184612e83565b92915050565b600081519050919050565b600082825260208201905092915050565b60005b83811015612ee7578082015181840152602081019050612ecc565b83811115612ef6576000848401525b50505050565b6000601f19601f8301169050919050565b6000612f1882612ead565b612f228185612eb8565b9350612f32818560208601612ec9565b612f3b81612efc565b840191505092915050565b60006020820190508181036000830152612f608184612f0d565b905092915050565b6000819050919050565b612f7b81612f68565b8114612f8657600080fd5b50565b600081359050612f9881612f72565b92915050565b600060208284031215612fb457612fb3612de8565b5b6000612fc284828501612f89565b91505092915050565b600073ffffffffffffffffffffffffffffffffffffffff82169050919050565b6000612ff682612fcb565b9050919050565b61300681612feb565b82525050565b60006020820190506130216000830184612ffd565b92915050565b61303081612feb565b811461303b57600080fd5b50565b60008135905061304d81613027565b92915050565b6000806040838503121561306a57613069612de8565b5b60006130788582860161303e565b925050602061308985828601612f89565b9150509250929050565b6000602082840312156130a9576130a8612de8565b5b60006130b78482850161303e565b91505092915050565b6000806000606084860312156130d9576130d8612de8565b5b60006130e78682870161303e565b93505060206130f88682870161303e565b925050604061310986828701612f89565b9150509250925092565b61311c81612f68565b82525050565b60006020820190506131376000830184613113565b92915050565b61314681612e77565b811461315157600080fd5b50565b6000813590506131638161313d565b92915050565b600080604083850312156131805761317f612de8565b5b600061318e8582860161303e565b925050602061319f85828601613154565b9150509250929050565b600080fd5b600080fd5b7f4e487b7100000000000000000000000000000000000000000000000000000000600052604160045260246000fd5b6131eb82612efc565b810181811067ffffffffffffffff8211171561320a576132096131b3565b5b80604052505050565b600061321d612dde565b905061322982826131e2565b919050565b600067ffffffffffffffff821115613249576132486131b3565b5b61325282612efc565b9050602081019050919050565b82818337600083830152505050565b600061328161327c8461322e565b613213565b90508281526020810184848401111561329d5761329c6131ae565b5b6132a884828561325f565b509392505050565b600082601f8301126132c5576132c46131a9565b5b81356132d584826020860161326e565b91505092915050565b600080600080608085870312156132f8576132f7612de8565b5b60006133068782880161303e565b94505060206133178782880161303e565b935050604061332887828801612f89565b925050606085013567ffffffffffffffff81111561334957613348612ded565b5b613355878288016132b0565b91505092959194509250565b60008060006060848603121561337a57613379612de8565b5b60006133888682870161303e565b935050602061339986828701612f89565b92505060406133aa86828701612f89565b9150509250925092565b600080604083850312156133cb576133ca612de8565b5b60006133d98582860161303e565b92505060206133ea8582860161303e565b9150509250929050565b6000806040838503121561340b5761340a612de8565b5b600061341985828601612f89565b925050602061342a85828601612f89565b9150509250929050565b60008060006060848603121561344d5761344c612de8565b5b600061345b86828701612f89565b935050602061346c86828701612f89565b925050604061347d86828701613154565b9150509250925092565b7f4e487b7100000000000000000000000000000000000000000000000000000000600052602260045260246000fd5b600060028204905060018216806134ce57607f821691505b602082108114156134e2576134e1613487565b5b50919050565b7f4552433732313a20617070726f76616c20746f2063757272656e74206f776e6560008201527f7200000000000000000000000000000000000000000000000000000000000000602082015250565b6000613544602183612eb8565b915061354f826134e8565b604082019050919050565b6000602082019050818103600083015261357381613537565b9050919050565b7f4552433732313a20617070726f76652063616c6c6572206973206e6f7420746f60008201527f6b656e206f776e6572206f7220617070726f76656420666f7220616c6c000000602082015250565b60006135d6603d83612eb8565b91506135e18261357a565b604082019050919050565b60006020820190508181036000830152613605816135c9565b9050919050565b7f53656c6c6572206f6e6c792066756e6374696f6e000000000000000000000000600082015250565b6000613642601483612eb8565b915061364d8261360c565b602082019050919050565b6000602082019050818103600083015261367181613635565b9050919050565b7f5468652070726f647563742065697468657220646f6573206e6f74206578697360008201527f74206f7220686173206e6f74206265656e20736f6c6420796574000000000000602082015250565b60006136d4603a83612eb8565b91506136df82613678565b604082019050919050565b60006020820190508181036000830152613703816136c7565b9050919050565b7f4e487b7100000000000000000000000000000000000000000000000000000000600052601160045260246000fd5b600061374482612f68565b915061374f83612f68565b9250827fffffffffffffffffffffffffffffffffffffffffffffffffffffffffffffffff038211156137845761378361370a565b5b828201905092915050565b7f5468652070726f64756374206973206e6f7420696e2077617272616e7479207060008201527f6572696f64000000000000000000000000000000000000000000000000000000602082015250565b60006137eb602583612eb8565b91506137f68261378f565b604082019050919050565b6000602082019050818103600083015261381a816137de565b9050919050565b7f596f7520617265206e6f74207468652073656c6c657200000000000000000000600082015250565b6000613857601683612eb8565b915061386282613821565b602082019050919050565b600060208201905081810360008301526138868161384a565b9050919050565b7f41646d696e206f6e6c792066756e6374696f6e00000000000000000000000000600082015250565b60006138c3601383612eb8565b91506138ce8261388d565b602082019050919050565b600060208201905081810360008301526138f2816138b6565b9050919050565b7f4552433732313a2063616c6c6572206973206e6f7420746f6b656e206f776e6560008201527f72206f7220617070726f76656400000000000000000000000000000000000000602082015250565b6000613955602d83612eb8565b9150613960826138f9565b604082019050919050565b6000602082019050818103600083015261398481613948565b9050919050565b7f4552433732313a20696e76616c696420746f6b656e2049440000000000000000600082015250565b60006139c1601883612eb8565b91506139cc8261398b565b602082019050919050565b600060208201905081810360008301526139f0816139b4565b9050919050565b7f4552433732313a2061646472657373207a65726f206973206e6f74206120766160008201527f6c6964206f776e65720000000000000000000000000000000000000000000000602082015250565b6000613a53602983612eb8565b9150613a5e826139f7565b604082019050919050565b60006020820190508181036000830152613a8281613a46565b9050919050565b7f4f776e61626c653a206e6577206f776e657220697320746865207a65726f206160008201527f6464726573730000000000000000000000000000000000000000000000000000602082015250565b6000613ae5602683612eb8565b9150613af082613a89565b604082019050919050565b60006020820190508181036000830152613b1481613ad8565b9050919050565b7f4552433732313a207472616e736665722066726f6d20696e636f72726563742060008201527f6f776e6572000000000000000000000000000000000000000000000000000000602082015250565b6000613b77602583612eb8565b9150613b8282613b1b565b604082019050919050565b60006020820190508181036000830152613ba681613b6a565b9050919050565b7f4552433732313a207472616e7366657220746f20746865207a65726f2061646460008201527f7265737300000000000000000000000000000000000000000000000000000000602082015250565b6000613c09602483612eb8565b9150613c1482613bad565b604082019050919050565b60006020820190508181036000830152613c3881613bfc565b9050919050565b7f4f776e61626c653a2063616c6c6572206973206e6f7420746865206f776e6572600082015250565b6000613c75602083612eb8565b9150613c8082613c3f565b602082019050919050565b60006020820190508181036000830152613ca481613c68565b9050919050565b7f4552433732313a20617070726f766520746f2063616c6c657200000000000000600082015250565b6000613ce1601983612eb8565b9150613cec82613cab565b602082019050919050565b60006020820190508181036000830152613d1081613cd4565b9050919050565b7f4552433732313a207472616e7366657220746f206e6f6e20455243373231526560008201527f63656976657220696d706c656d656e7465720000000000000000000000000000602082015250565b6000613d73603283612eb8565b9150613d7e82613d17565b604082019050919050565b60006020820190508181036000830152613da281613d66565b9050919050565b600081905092915050565b6000613dbf82612ead565b613dc98185613da9565b9350613dd9818560208601612ec9565b80840191505092915050565b6000613df18285613db4565b9150613dfd8284613db4565b91508190509392505050565b7f4e487b7100000000000000000000000000000000000000000000000000000000600052601260045260246000fd5b7f45524337323155524953746f726167653a2055524920736574206f66206e6f6e60008201527f6578697374656e7420746f6b656e000000000000000000000000000000000000602082015250565b6000613e94602e83612eb8565b9150613e9f82613e38565b604082019050919050565b60006020820190508181036000830152613ec381613e87565b9050919050565b600081519050919050565b600082825260208201905092915050565b6000613ef182613eca565b613efb8185613ed5565b9350613f0b818560208601612ec9565b613f1481612efc565b840191505092915050565b6000608082019050613f346000830187612ffd565b613f416020830186612ffd565b613f4e6040830185613113565b8181036060830152613f608184613ee6565b905095945050505050565b600081519050613f7a81612e1e565b92915050565b600060208284031215613f9657613f95612de8565b5b6000613fa484828501613f6b565b91505092915050565b7f4552433732313a206d696e7420746f20746865207a65726f2061646472657373600082015250565b6000613fe3602083612eb8565b9150613fee82613fad565b602082019050919050565b6000602082019050818103600083015261401281613fd6565b9050919050565b7f4552433732313a20746f6b656e20616c7265616479206d696e74656400000000600082015250565b600061404f601c83612eb8565b915061405a82614019565b602082019050919050565b6000602082019050818103600083015261407e81614042565b905091905056fea26469706673582212203b686c89334cd459df0e166e17fa1f178ee0dd48c696a97183a0c1af64498caa64736f6c63430008090033",
  "linkReferences": {},
  "deployedLinkReferences": {}
}